:100000000C942A000C943F000C943F000C943F0089
:100010000C943F000C943F000C943F000C943F0064
:100020000C943F000C943F000C943F000C943F0054
:100030000C943F000C943F000C943F000C943F0044
:100040000C943F000C943F000C943F000C943F0034
:100050000C943F0011241FBECFE5D8E0DEBFCDBF1A
:1000600010E0A0E6B0E0E4E9F1E202C005900D92F4
:10007000A238B107D9F70E9468100C94C8100C94EC
:100080000000EF92FF920F931F937B018C0120E001
:1000900030E040E05FE40E94ED0388238CF0C8016B
:1000A000B70120E030E040E05FE40E94B9010E9427
:1000B0004D049B01AC01205030404040504806C0E8
:1000C000C801B7010E944D049B01AC01B901CA01EE
:1000D0001F910F91FF90EF900895A0E0B0E0E3E74B
:1000E000F0E00C949110DC012B01FA019C9192300C
:1000F00008F439C1EB018881823008F433C19430AF
:1001000069F4843009F02FC111969C91119789816F
:10011000981709F428C1AAE7B0E025C1843009F492
:1001200021C18230A9F4923009F01DC19A01AD01BC
:1001300088E0EA010990AE01E90109929E0181502F
:10014000C1F7E201898111969C918923818308C1BD
:10015000923009F407C112962D903C901397EB0151
:100160008A819B811496AD90BD90CD90DC901797BD
:10017000EC80FD800E811F819101281B390BB90194
:1001800037FF04C066277727621B730B6032710547
:100190000CF061C0121613066CF537014801062EEB
:1001A00004C096948794779467940A94D2F721E0D8
:1001B00030E040E050E004C0220F331F441F551FC1
:1001C0006A95D2F721503040404050402E213F21C7
:1001D00040235123211531054105510521F021E02E
:1001E00030E040E050E079018A01E628F72808294C
:1001F00019293CC0232BD1F1260E371E35014601AB
:10020000062E04C096948794779467940A94D2F744
:1002100021E030E040E050E004C0220F331F441FD3
:10022000551F6A95D2F721503040404050402A2156
:100230003B214C215D21211531054105510521F05E
:1002400021E030E040E050E059016A01A628B728DB
:10025000C828D9280BC0821593052CF01C01AA24AC
:10026000BB24650103C0EE24FF24870111969C91F5
:10027000D20111968C91981709F445C0992339F051
:10028000A80197012A193B094C095D0906C0A6017E
:1002900095012E193F09400B510B57FD08C01182E3
:1002A0003382228224833583468357831DC081E0B5
:1002B00081833382228288279927DC01821B930B5A
:1002C000A40BB50B84839583A683B7830DC0220F3F
:1002D000331F441F551F24833583468357838281F0
:1002E000938101979383828324813581468157814D
:1002F000DA01C9010197A109B1098F5F9F4FAF4F83
:10030000BF4328F30BC0918333822282EA0CFB1C8B
:100310000C1D1D1DE482F5820683178383E0808314
:10032000248135814681578157FF1AC0C901AA2708
:1003300097FDA095BA2F81709070A070B0705695FF
:10034000479537952795822B932BA42BB52B848328
:100350009583A683B7838281938101969383828359
:10036000DF0101C0D201CD01CDB7DEB7E2E10C94CF
:10037000AD10A0E2B0E0EFEBF1E00C949D106983CA
:100380007A838B839C832D833E834F835887E9E058
:10039000EE2EF12CEC0EFD1ECE010196B7010E944F
:1003A00076058E010F5E1F4FCE010596B8010E94A3
:1003B00076058A8991E089278A8BC701B801AE0149
:1003C000475E5F4F0E946D000E94A104A096E6E088
:1003D0000C94B910A0E2B0E0E0EFF1E00C949D10B5
:1003E00069837A838B839C832D833E834F835887D5
:1003F000F9E0EF2EF12CEC0EFD1ECE010196B701B7
:100400000E9476058E010F5E1F4FCE010596B80142
:100410000E947605C701B801AE01475E5F4F0E949A
:100420006D000E94A104A096E6E00C94B910A0E231
:10043000B0E0EDE1F2E00C94911069837A838B8354
:100440009C832D833E834F835887CE010196BE0146
:10045000675F7F4F0E947605CE010596BE016F5EF5
:100460007F4F0E9476059985923088F08989823085
:10047000C8F0943019F4823051F404C0843029F467
:10048000923081F48AE790E0C6C0923049F420E0CF
:100490009A858A89981321E02A87CE010996BBC0E4
:1004A000823049F420E09A858A89981321E02A8BCA
:1004B000CE014196B0C02D843E844F8458886D880B
:1004C0007E888F88988CEE24FF248701AA24BB2481
:1004D000650140E050E060E070E0E0E0F0E0C10184
:1004E00081709070892BE9F0E60CF71C081D191D2E
:1004F0009A01AB012A0D3B1D4C1D5D1D80E090E073
:10050000A0E0B0E0E614F7040805190520F481E046
:1005100090E0A0E0B0E0BA01A901480F591F6A1F9E
:100520007B1FAA0CBB1CCC1CDD1C97FE08C081E005
:1005300090E0A0E0B0E0A82AB92ACA2ADB2A3196C6
:10054000E032F10549F0660C771C881C991C569422
:10055000479437942794C3CFFA85EA892B893C893D
:100560008B859C85280F391F2E5F3F4F17C0CA010E
:1005700081709070892B61F016950795F794E79438
:1005800080E090E0A0E0B0E8E82AF92A0A2B1B2BD3
:1005900076956795579547952F5F3F4F77FDE7CF46
:1005A0000CC0440F551F661F771F17FD4160EE0CEE
:1005B000FF1C001F111F21503040403090E05907B0
:1005C00090E0690790E4790760F32B8F3C8FDB01A3
:1005D000CA018F779070A070B07080349105A1052A
:1005E000B10561F447FD0AC0E114F10401051105EC
:1005F00029F0405C5F4F6F4F7F4F40781A8EFE1797
:1006000011F081E08A8F4D8F5E8F6F8F78A383E02A
:10061000898FCE0149960E94A104A096E2E10C9434
:10062000AD10A8E1B0E0E7E1F3E00C949910698324
:100630007A838B839C832D833E834F835887B9E0D5
:10064000EB2EF12CEC0EFD1ECE010196B7010E949F
:1006500076058E010F5E1F4FCE010596B8010E94F0
:1006600076052985223008F47EC03989323010F4AD
:10067000B8017CC08A859A8989278A87243011F03D
:10068000223031F4231709F06EC06AE770E06EC0C3
:10069000343039F41D861E861F86188A1C861B86F8
:1006A00004C0323021F484E08987B7015FC02B8514
:1006B0003C858B899C89281B390B3C872B87ED84D3
:1006C000FE840F851889AD88BE88CF88D88CEA143F
:1006D000FB040C051D0540F4EE0CFF1C001F111F50
:1006E000215030403C872B8720E030E040E050E054
:1006F00080E090E0A0E0B0E460E070E0EA14FB0489
:100700000C051D0540F0282B392B4A2B5B2BEA18D2
:10071000FB080C091D09B695A79597958795EE0CD2
:10072000FF1C001F111F6F5F7F4F6F31710531F785
:10073000DA01C9018F779070A070B0708034910594
:10074000A105B10561F427FD0AC0E114F10401051A
:10075000110529F0205C3F4F4F4F5F4F20782D87C8
:100760003E874F87588BBE01675F7F4FCB010E944A
:10077000A1046896EAE00C94B510A8E1B0E0E3ECBF
:10078000F3E00C949D1069837A838B839C832D8383
:100790003E834F83588789E0E82EF12CEC0EFD1E36
:1007A000CE010196B7010E9476058E010F5E1F4FA4
:1007B000CE010596B8010E9476058985823040F009
:1007C0008989823028F0C701B8010E94EE0501C076
:1007D0008FEF6896E6E00C94B910A8E1B0E0E3EF83
:1007E000F3E00C949D1069837A838B839C832D8323
:1007F0003E834F83588789E0E82EF12CEC0EFD1ED6
:10080000CE010196B7010E9476058E010F5E1F4F43
:10081000CE010596B8010E9476058985823040F0A8
:100820008989823028F0C701B8010E94EE0501C015
:100830008FEF6896E6E00C94B910A8E1B0E0E3E22F
:10084000F4E00C949D1069837A838B839C832D83C1
:100850003E834F83588789E0E82EF12CEC0EFD1E75
:10086000CE010196B7010E9476058E010F5E1F4FE3
:10087000CE010596B8010E9476058985823040F048
:100880008989823028F0C701B8010E94EE0501C0B5
:1008900081E06896E6E00C94B910ACE0B0E0E3E5E6
:1008A000F4E00C94A11069837A838B839C83CE013E
:1008B0000196BE016B5F7F4F0E9476058D8182306D
:1008C00061F1823050F1843021F48E81882351F11E
:1008D0002EC02F81388537FD20C06E812F31310524
:1008E0001CF06623F9F023C08EE190E0821B930B8D
:1008F00029853A854B855C8504C056954795379583
:1009000027958A95D2F76623B1F05095409530959A
:1009100021953F4F4F4F5F4F0EC020E030E040E049
:1009200050E009C02FEF3FEF4FEF5FE704C020E03A
:1009300030E040E050E8B901CA012C96E2E00C94A6
:10094000BD10DF92EF92FF920F931F93FC01E480A2
:10095000F58006811781D1808081823048F480E063
:1009600090E0A0E1B0E0E82AF92A0A2B1B2BA5C0F1
:10097000843009F49FC0823021F4EE24FF248701E3
:1009800005C0E114F1040105110519F4E0E0F0E0FF
:1009900096C0628173819FEF623879070CF05BC06B
:1009A00022E83FEF261B370B2A3131052CF020E0DF
:1009B00030E040E050E02AC0B801A701022E04C098
:1009C00076956795579547950A94D2F781E090E020
:1009D000A0E0B0E004C0880F991FAA1FBB1F2A9592
:1009E000D2F70197A109B1098E219F21A023B1233C
:1009F0000097A105B10521F081E090E0A0E0B0E012
:100A00009A01AB01282B392B4A2B5B2BDA01C90148
:100A10008F779070A070B07080349105A105B105FA
:100A200039F427FF09C0205C3F4F4F4F5F4F04C090
:100A3000215C3F4F4F4F5F4FE0E0F0E02030A0E0FF
:100A40003A07A0E04A07A0E45A0710F0E1E0F0E01E
:100A500079018A0127C06038710564F5FB01E1580E
:100A6000FF4FD801C7018F779070A070B0708034AD
:100A70009105A105B10539F4E7FE0DC080E490E0D1
:100A8000A0E0B0E004C08FE390E0A0E0B0E0E80EAA
:100A9000F91E0A1F1B1F17FF05C016950795F7942F
:100AA000E794319687E016950795F794E7948A9531
:100AB000D1F705C0EE24FF248701EFEFF0E06E2FA1
:100AC000679566276795902F9F77D794DD24D794F5
:100AD0008E2F8695492F462B582F5D29B701CA01C5
:100AE0001F910F91FF90EF90DF900895FC01DB01C3
:100AF000408151812281622F6F7770E0221F22276F
:100B0000221F9381892F880F822B282F30E0991F75
:100B10009927991F11969C93119721153105A9F5D5
:100B2000411551056105710511F482E037C082E875
:100B30009FEF13969C938E9312979A01AB0167E0F7
:100B4000220F331F441F551F6A95D1F783E08C9302
:100B50000DC0220F331F441F551F12968D919C917B
:100B60001397019713969C938E931297203080E0F1
:100B7000380780E0480780E4580758F314962D930F
:100B80003D934D935C93179708952F3F310579F46A
:100B9000411551056105710519F484E08C930895A0
:100BA00064FF03C081E08C9312C01C9210C02F57C9
:100BB000304013963C932E93129783E08C9387E0FA
:100BC000440F551F661F771F8A95D1F770641496DE
:100BD0004D935D936D937C93179708951F93DC015C
:100BE000FB019C91923008F447C08081823008F468
:100BF00043C0943051F411961C91843099F5818151
:100C0000682F70E0611B71093FC0843021F0923081
:100C100031F48230B9F18181882389F12DC0119698
:100C20001C9111978230F1F081811817D9F4129636
:100C30002D913C911397828193818217930794F0B1
:100C400028173907BCF014968D919D910D90BC9199
:100C5000A02D2481358146815781281739074A07FD
:100C60005B0718F4112341F00AC082179307A40709
:100C7000B50740F4112319F061E070E005C06FEF93
:100C80007FEF02C060E070E0CB011F910895DF9319
:100C9000CF93CDB7DEB7EAE3F0E087E08083E7E308
:100CA000F0E01082E4E3F0E01082E1E3F0E08FEFA7
:100CB0008083EBE3F0E01082E8E3F0E01082E5E30C
:100CC000F0E01082E2E3F0E01082CF91DF9108952E
:100CD000DF93CF93CDB7DEB72E970FB6F894DEBF74
:100CE0000FBECDBF8A836B834C8381E089838A8169
:100CF000843008F00CC18B81883008F008C18C81E9
:100D0000813021F08C81882309F001C18A81282F4C
:100D100030E03E872D878D859E858130910509F4D1
:100D20004FC02D853E85223031052CF48D859E8562
:100D3000009771F0EDC02D853E852230310509F414
:100D400077C08D859E858330910509F4A9C0E0C0E8
:100D50008C81282F30E03C872B878B859C850097E2
:100D6000D1F02B853C852130310509F0D1C0AAE3B3
:100D7000B0E0EAE3F0E08081482F8B81282F30E05B
:100D800081E090E0022E02C0880F991F0A94E2F7DA
:100D9000842B8C93BDC0AAE3B0E0EAE3F0E080814D
:100DA000482F8B81282F30E081E090E0022E02C096
:100DB000880F991F0A94E2F7809584238C93A8C02A
:100DC0008C81282F30E03A87298789859A8500977A
:100DD000D1F029853A852130310509F099C0A7E382
:100DE000B0E0E7E3F0E08081482F8B81282F30E0EE
:100DF00081E090E0022E02C0880F991F0A94E2F76A
:100E0000842B8C9385C0A7E3B0E0E7E3F0E080811A
:100E1000482F8B81282F30E081E090E0022E02C025
:100E2000880F991F0A94E2F7809584238C9370C0F1
:100E30008C81282F30E038872F838F819885009709
:100E4000D1F02F8138852130310509F061C0A4E34C
:100E5000B0E0E4E3F0E08081482F8B81282F30E080
:100E600081E090E0022E02C0880F991F0A94E2F7F9
:100E7000842B8C934DC0A4E3B0E0E4E3F0E08081E8
:100E8000482F8B81282F30E081E090E0022E02C0B5
:100E9000880F991F0A94E2F7809584238C9338C0B9
:100EA0008C81282F30E03E832D838D819E81009799
:100EB000C9F02D813E812130310551F5A1E3B0E02B
:100EC000E1E3F0E08081482F8B81282F30E081E042
:100ED00090E0022E02C0880F991F0A94E2F7842B3B
:100EE0008C9316C0A1E3B0E0E1E3F0E08081482FED
:100EF0008B81282F30E081E090E0022E02C0880F25
:100F0000991F0A94E2F7809584238C9301C019827B
:100F100089812E960FB6F894DEBF0FBECDBFCF915C
:100F2000DF910895DF93CF93CDB7DEB72E970FB63D
:100F3000F894DEBF0FBECDBF8A836B834C8381E004
:100F400089838A81843008F00CC18B81883008F055
:100F500008C18C81813021F08C81882309F001C186
:100F60008A81282F30E03E872D878D859E858130B0
:100F7000910509F44FC02D853E85223031052CF4B2
:100F80008D859E85009771F0EDC02D853E852230C0
:100F9000310509F477C08D859E858330910509F46C
:100FA000A9C0E0C08C81282F30E03C872B878B853F
:100FB0009C850097D1F02B853C852130310509F0C7
:100FC000D1C0ABE3B0E0EBE3F0E08081482F8B8150
:100FD000282F30E081E090E0022E02C0880F991F98
:100FE0000A94E2F7842B8C93BDC0ABE3B0E0EBE353
:100FF000F0E08081482F8B81282F30E081E090E065
:10100000022E02C0880F991F0A94E2F7809584236C
:101010008C93A8C08C81282F30E03A872987898556
:101020009A850097D1F029853A852130310509F05C
:1010300099C0A8E3B0E0E8E3F0E08081482F8B811D
:10104000282F30E081E090E0022E02C0880F991F27
:101050000A94E2F7842B8C9385C0A8E3B0E0E8E320
:10106000F0E08081482F8B81282F30E081E090E0F4
:10107000022E02C0880F991F0A94E2F780958423FC
:101080008C9370C08C81282F30E038872F838F811C
:1010900098850097D1F02F8138852130310509F0EE
:1010A00061C0A5E3B0E0E5E3F0E08081482F8B81EB
:1010B000282F30E081E090E0022E02C0880F991FB7
:1010C0000A94E2F7842B8C934DC0A5E3B0E0E5E3EE
:1010D000F0E08081482F8B81282F30E081E090E084
:1010E000022E02C0880F991F0A94E2F7809584238C
:1010F0008C9338C08C81282F30E03E832D838D81E6
:101100009E810097C9F02D813E812130310551F536
:10111000A2E3B0E0E2E3F0E08081482F8B81282F4A
:1011200030E081E090E0022E02C0880F991F0A94FF
:10113000E2F7842B8C9316C0A2E3B0E0E2E3F0E088
:101140008081482F8B81282F30E081E090E0022EB3
:1011500002C0880F991F0A94E2F7809584238C932C
:1011600001C0198289812E960FB6F894DEBF0FBE9A
:10117000CDBFCF91DF910895DF93CF93CDB7DEB789
:1011800028970FB6F894DEBF0FBECDBF8B836C835C
:101190005E834D8381E08A838B81843008F09FC019
:1011A0008C81883008F09BC08D819E81009709F466
:1011B00096C08B81282F30E038872F834F81588548
:1011C00041305105A9F18F8198858230910534F421
:1011D0002F8138852115310571F082C04F815885E6
:1011E0004230510509F441C08F81988583309105C3
:1011F00009F458C075C0E9E3F0E08081282F30E0A1
:101200008C81882F90E0A90102C0559547958A9559
:10121000E2F7CA01817089838981882321F4ED81F5
:10122000FE8110825DC0ED81FE8181E0808358C027
:10123000E6E3F0E08081282F30E08C81882F90E079
:10124000A90102C0559547958A95E2F7CA018170B8
:1012500089838981882321F4ED81FE81108240C039
:10126000ED81FE8181E080833BC0E3E3F0E080819B
:10127000282F30E08C81882F90E0A90102C055957D
:1012800047958A95E2F7CA0181708983898188230D
:1012900021F4ED81FE81108223C0ED81FE8181E089
:1012A00080831EC0E0E3F0E08081282F30E08C8155
:1012B000882F90E0A90102C0559547958A95E2F7DD
:1012C000CA01817089838981882321F4ED81FE819F
:1012D000108206C0ED81FE8181E0808301C01A8208
:1012E0008A8128960FB6F894DEBF0FBECDBFCF918E
:1012F000DF910895DF93CF93CDB7DEB72D970FB66B
:10130000F894DEBF0FBECDBF8A836B8381E08983F3
:1013100081E08B838A81282F30E03D872C878C8564
:101320009D858130910571F12C853D8522303105F7
:101330002CF48C859D85009769F069C02C853D85CE
:1013400022303105B1F18C859D858330910509F4FA
:1013500047C05DC08B81282F30E03B872A878A8574
:101360009B85009759F02A853B852130310509F08E
:101370004FC0EAE3F0E08FEF80834AC0EAE3F0E099
:10138000108246C08B81282F30E0398728878885D6
:101390009985009751F02885398521303105C1F5AF
:1013A000E7E3F0E08FEF808333C0E7E3F0E0108203
:1013B0002FC08B81282F30E03F832E838E819F8129
:1013C000009751F02E813F812130310509F5E4E38A
:1013D000F0E08FEF80831CC0E4E3F0E0108218C0DF
:1013E0008B81282F30E03D832C838C819D81009759
:1013F00051F02C813D812130310551F4E1E3F0E0E1
:101400008FEF808305C0E1E3F0E0108201C0198214
:1014100089812D960FB6F894DEBF0FBECDBFCF9158
:10142000DF910895DF93CF9300D000D00F92CDB716
:10143000DEB78A836B8381E089838A81282F30E03D
:101440003D832C838C819D8181309105D1F02C814D
:101450003D81223031052CF48C819D81009761F013
:101460001FC02C813D812230310581F08C819D810E
:101470008330910581F014C0EBE3F0E08B81808331
:1014800010C0E8E3F0E08B8180830BC0E5E3F0E07F
:101490008B81808306C0E2E3F0E08B81808301C012
:1014A000198289810F900F900F900F900F90CF911C
:1014B000DF910895DF93CF9300D000D000D0CDB757
:1014C000DEB78A837C836B8381E089838B819C81F7
:1014D0000097E9F18A81282F30E03E832D838D81AA
:1014E0009E8181309105E1F02D813E8122303105D0
:1014F0002CF48D819E81009761F027C02D813E8163
:1015000022303105A1F08D819E8183309105B1F0AB
:101510001CC0E9E3F0E08081EB81FC81808318C08E
:10152000E6E3F0E08081EB81FC81808311C0E3E39E
:10153000F0E08081EB81FC8180830AC0E0E3F0E091
:101540008081EB81FC81808303C0198201C01982F4
:10155000898126960FB6F894DEBF0FBECDBFCF911E
:10156000DF9108950F931F93DF93CF93CDB7DEB72D
:10157000CC54D0400FB6F894DEBF0FBECDBFFE01F5
:10158000E75BFF4F80E090E0ACE0B2E480839183C2
:10159000A283B3838E010B5B1F4FFE01E75BFF4FFE
:1015A000608171818281938120E030E04AEF54E4D0
:1015B0000E941702DC01CB01F80180839183A28392
:1015C000B383FE01EB5BFF4F608171818281938168
:1015D00020E030E040E85FE30E941D04882344F4EB
:1015E000FE01ED5BFF4F81E090E09183808364C05A
:1015F000FE01EB5BFF4F608171818281938120E06E
:101600003FEF4FE757E40E94BD0318160CF043C0AC
:10161000FE01E75BFF4F608171818281938120E051
:1016200030E040E251E40E941702DC01CB018E0160
:101630000D5B1F4FBC01CD010E944100DC01CB01BD
:10164000F801918380831FC0FE01EF5BFF4F88ECA0
:1016500090E091838083FE01EF5BFF4F8081918159
:101660000197F1F7FE01EF5BFF4F91838083DE016D
:10167000AD5BBF4FFE01ED5BFF4F80819181019714
:1016800011969C938E93FE01ED5BFF4F80819181BB
:101690000097D1F624C08E010D5B1F4FFE01EB5B5E
:1016A000FF4F60817181828193810E944100DC0142
:1016B000CB01F80191838083FE01ED5BFF4F8081B8
:1016C0009181FE01FF9691838083FE01FF968081C8
:1016D00091810197F1F7FE01FF969183808388E362
:1016E0000E94750D80E090E0A0E2B2E48BAF9CAF69
:1016F000ADAFBEAF6BAD7CAD8DAD9EAD2BEA3AEA22
:101700004AE250E40E941702DC01CB018FAB98AF94
:10171000A9AFBAAF6FA978AD89AD9AAD20E030E03E
:1017200040E85FE30E941D0488231CF481E08EAB37
:1017300091C06FA978AD89AD9AAD20E030E04FE758
:1017400053E40E94BD0318160CF07BC06BAD7CAD5A
:101750008DAD9EAD20E030E04AE754E40E941103D5
:10176000DC01CB018AAB9BABACABBDAB6AA97BA95F
:101770008CA99DA920E030E04AEF54E40E941702B2
:10178000DC01CB018EA79FA7A8ABB9AB6EA57FA547
:1017900088A999A920E030E040E85FE30E941D0499
:1017A00088232CF481E090E09DA78CA73FC06EA514
:1017B0007FA588A999A920E03FEF4FE757E40E9451
:1017C000BD0318164CF56AA97BA98CA99DA920E038
:1017D00030E040E251E40E941702DC01CB01BC0181
:1017E000CD010E944100DC01CB019DA78CA70FC059
:1017F00088EC90E09BA78AA78AA59BA50197F1F7A3
:101800009BA78AA78CA59DA501979DA78CA78CA5B2
:101810009DA5009769F724C06EA57FA588A999A901
:101820000E944100DC01CB019DA78CA78CA59DA542
:1018300099A788A788A599A50197F1F799A788A7DF
:101840000FC06FA978AD89AD9AAD0E944100DC014F
:10185000CB018EAB8EA98FA38FA18A95F1F78FA3B1
:101860008FE00E94750D80E090E0A0E2B2E48BA3CF
:101870009CA3ADA3BEA36BA17CA18DA19EA12BEACD
:101880003AEA4AE250E40E941702DC01CB018F8F52
:1018900098A3A9A3BAA36F8D78A189A19AA120E0EA
:1018A00030E040E85FE30E941D0488231CF481E0DF
:1018B0008E8F91C06F8D78A189A19AA120E030E030
:1018C0004FE753E40E94BD0318160CF07BC06BA1D8
:1018D0007CA18DA19EA120E030E04AE754E40E9463
:1018E0001103DC01CB018A8F9B8FAC8FBD8F6A8D7A
:1018F0007B8D8C8D9D8D20E030E04AEF54E40E947A
:101900001702DC01CB018E8B9F8BA88FB98F6E895C
:101910007F89888D998D20E030E040E85FE30E9468
:101920001D0488232CF481E090E09D8B8C8B3FC0BC
:101930006E897F89888D998D20E03FEF4FE757E4CE
:101940000E94BD0318164CF56A8D7B8D8C8D9D8D84
:1019500020E030E040E251E40E941702DC01CB01BC
:10196000BC01CD010E944100DC01CB019D8B8C8B21
:101970000FC088EC90E09B8B8A8B8A899B890197AA
:10198000F1F79B8B8A8B8C899D8901979D8B8C8B22
:101990008C899D89009769F724C06E897F89888D1D
:1019A000998D0E944100DC01CB019D8B8C8B8C8931
:1019B0009D89998B888B888999890197F1F7998BF3
:1019C000888B0FC06F8D78A189A19AA10E944100D8
:1019D000DC01CB018E8F8E8D8F878F858A95F1F7F5
:1019E0008F8781E00E94750D80E090E0A0E0B0E478
:1019F0008B879C87AD87BE876B857C858D859E8513
:101A000020E030E04AEF54E40E941702DC01CB01F1
:101A10008F839887A987BA876F81788589859A850A
:101A200020E030E040E85FE30E941D0488232CF4AE
:101A300081E090E09E838D833FC06F8178858985AA
:101A40009A8520E03FEF4FE757E40E94BD03181648
:101A50004CF56B857C858D859E8520E030E040E2ED
:101A600051E40E941702DC01CB01BC01CD010E94B0
:101A70004100DC01CB019E838D830FC088EC90E098
:101A80009C838B838B819C810197F1F79C838B8353
:101A90008D819E8101979E838D838D819E8100978C
:101AA00069F714C06F81788589859A850E94410005
:101AB000DC01CB019E838D838D819E819A838983F6
:101AC00089819A810197F1F79A83898386E00E9440
:101AD000750DC45BDF4F0FB6F894DEBF0FBECDBFF0
:101AE000CF91DF911F910F910895DF93CF93CDB7E1
:101AF000DEB769970FB6F894DEBF0FBECDBF898FF2
:101B000080E060E040E00E94920780E061E040E019
:101B10000E94920783E0698D0E94120A80E062E0D1
:101B200041E00E94920780E090E0A0E8BFE38D8B47
:101B30009E8BAF8BB88F6D897E898F89988D2BEAAC
:101B40003AEA4AE250E40E941702DC01CB01898B99
:101B50009A8BAB8BBC8B69897A898B899C8920E0B5
:101B600030E040E85FE30E941D0488231CF481E01C
:101B7000888B91C069897A898B899C8920E030E0C3
:101B80004FE753E40E94BD0318160CF07BC06D892B
:101B90007E898F89988D20E030E04AE754E40E94E6
:101BA0001103DC01CB018C879D87AE87BF876C85D5
:101BB0007D858E859F8520E030E04AEF54E40E94C9
:101BC0001702DC01CB0188879987AA87BB876885C4
:101BD00079858A859B8520E030E040E85FE30E94BC
:101BE0001D0488232CF481E090E09F838E833FC006
:101BF000688579858A859B8520E03FEF4FE757E42C
:101C00000E94BD0318164CF56C857D858E859F85D9
:101C100020E030E040E251E40E941702DC01CB01F9
:101C2000BC01CD010E944100DC01CB019F838E836A
:101C30000FC088EC90E09D838C838C819D810197FF
:101C4000F1F79D838C838E819F8101979F838E8383
:101C50008E819F81009769F724C0688579858A8580
:101C60009B850E944100DC01CB019F838E838E8186
:101C70009F819B838A838A819B810197F1F79B8354
:101C80008A830FC069897A898B899C890E94410067
:101C9000DC01CB01888B8889898389818A95F1F75A
:101CA000898380E062E040E00E94920769960FB667
:101CB000F894DEBF0FBECDBFCF91DF910895DF93C3
:101CC000CF93CDB7DEB769970FB6F894DEBF0FBEDE
:101CD000CDBF898F80E060E041E00E94920780E004
:101CE00061E040E00E94920783E0698D0E94120A41
:101CF00080E062E041E00E94920780E090E0A0E88E
:101D0000BFE38D8B9E8BAF8BB88F6D897E898F895A
:101D1000988D2BEA3AEA4AE250E40E941702DC016D
:101D2000CB01898B9A8BAB8BBC8B69897A898B8928
:101D30009C8920E030E040E85FE30E941D04882396
:101D40001CF481E0888B91C069897A898B899C8990
:101D500020E030E04FE753E40E94BD0318160CF07A
:101D60007BC06D897E898F89988D20E030E04AE7BD
:101D700054E40E941103DC01CB018C879D87AE8760
:101D8000BF876C857D858E859F8520E030E04AEF9A
:101D900054E40E941702DC01CB0188879987AA8747
:101DA000BB87688579858A859B8520E030E040E89F
:101DB0005FE30E941D0488232CF481E090E09F8360
:101DC0008E833FC0688579858A859B8520E03FEFBB
:101DD0004FE757E40E94BD0318164CF56C857D85CE
:101DE0008E859F8520E030E040E251E40E9417029A
:101DF000DC01CB01BC01CD010E944100DC01CB0123
:101E00009F838E830FC088EC90E09D838C838C81B0
:101E10009D810197F1F79D838C838E819F8101972E
:101E20009F838E838E819F81009769F724C0688588
:101E300079858A859B850E944100DC01CB019F83C7
:101E40008E838E819F819B838A838A819B81019768
:101E5000F1F79B838A830FC069897A898B899C8972
:101E60000E944100DC01CB01888B888989838981AC
:101E70008A95F1F7898380E062E040E00E94920752
:101E800069960FB6F894DEBF0FBECDBFCF91DF913C
:101E90000895DF93CF9300D000D000D0CDB7DEB748
:101EA0009E838D8319821A821B821C8215C0298110
:101EB0003A818D819E81FC01E20FF31F80810E9497
:101EC0005F0E89819A81AB81BC810196A11DB11DF4
:101ED00089839A83AB83BC8329813A818D819E81DA
:101EE000FC01E20FF31F8081882309F726960FB6C5
:101EF000F894DEBF0FBECDBFCF91DF910895DF9381
:101F0000CF9300D000D00F92CDB7DEB78A836B831A
:101F100081E089838B818832E0F48A81282F30E048
:101F20003D832C838C819D818130910531F02C8102
:101F30003D812230310531F00AC08B8180580E94EA
:101F4000750D08C08B8180540E94750D03C01982E5
:101F500001C0198289810F900F900F900F900F9000
:101F6000CF91DF910895DF93CF93CDB7DEB72E9752
:101F70000FB6F894DEBF0FBECDBF81E00E94750D95
:101F800080E090E0A0E0B0E48B879C87AD87BE87BF
:101F90006B857C858D859E8520E030E04AEF54E49A
:101FA0000E941702DC01CB018F839887A987BA872B
:101FB0006F81788589859A8520E030E040E85FE38D
:101FC0000E941D0488232CF481E090E09E838D8381
:101FD0003FC06F81788589859A8520E03FEF4FE784
:101FE00057E40E94BD0318164CF56B857C858D85E2
:101FF0009E8520E030E040E251E40E941702DC01BF
:10200000CB01BC01CD010E944100DC01CB019E83CC
:102010008D830FC088EC90E09C838B838B819C81A7
:102020000197F1F79C838B838D819E8101979E831D
:102030008D838D819E81009769F714C06F817885AB
:1020400089859A850E944100DC01CB019E838D83A6
:102050008D819E819A83898389819A810197F1F785
:102060009A83898380E80E94750D2E960FB6F894A6
:10207000DEBF0FBECDBFCF91DF910895DF93CF9329
:1020800000D000D0CDB7DEB71C821B8214C01A82EC
:10209000198206C0000089819A8101969A838983FA
:1020A00089819A8121E0843F9207A4F38B819C81EE
:1020B00001969C838B838B819C8121E0843F9207D6
:1020C00034F30F900F900F900F90CF91DF91089500
:1020D000DF93CF93CDB7DEB70E9447060E94B20AC6
:1020E00081E063E00E947F0F80E690E00E94490F4C
:1020F00082E065E00E947F0F8DE690E00E94490F2C
:102100000E943E100E94B30F81E065E00E947F0FA5
:1021100082E790E00E94490F0E943E100E94B30F98
:10212000DBCF2F923F924F925F926F927F928F926E
:102130009F92AF92BF92CF92DF92EF92FF920F9356
:102140001F93CF93DF93CDB7DEB7CA1BDB0B0FB660
:10215000F894DEBF0FBECDBF09942A88398848881D
:102160005F846E847D848C849B84AA84B984C884B3
:10217000DF80EE80FD800C811B81AA81B981CE0FAA
:10218000D11D0FB6F894DEBF0FBECDBFED0108958F
:04219000F894FFCFF1
:10219400476F6F64204D6F726E696E6700534549D7
:1021A4004600476F6F64427965000000000000003C
:0221B400000029
:00000001FF
